:020000040800F2
:100000000050002055230008D50B0008D70B00082E
:10001000D90B0008DB0B0008DD0B00080000000016
:10002000000000000000000000000000DF0B0008DE
:10003000E10B000800000000E30B0008E50B0008DE
:100040009D2300089D2300089D2300089D23000890
:100050009D2300089D2300089D2300089D23000880
:100060009D2300089D2300089D2300089D23000870
:100070009D2300089D2300089D2300089D23000860
:100080009D2300089D2300089D2300089D23000850
:100090009D2300089D2300089D2300089D23000840
:1000A0009D2300089D2300089D2300089D23000830
:1000B0009D2300089D2300089D2300089D23000820
:1000C0009D2300089D2300089D2300089D23000810
:1000D0009D2300089D2300089D2300089D23000800
:1000E0009D2300089D2300089D23000800000000B8
:1000F0000000000000000000000000000000000000
:0C01000000000000000000005FF808F1A3
:10010C00034613F8012B002AFBD1181A013870474B
:10011C0010B5054C237833B9044B13B10448AFF335
:10012C0000800123237010BD1C0000200000000083
:10013C002024000808B5034B1BB103490348AFF357
:10014C00008008BD000000002000002020240008D2
:10015C0008B500224FF48071014801F089FA08BDFE
:10016C00000C014010B5074C00224021204601F044
:10017C007FFA052000F022FE01224021204601F0EA
:10018C0077FA10BD000C014000B583B08DF8070064
:10019C0000228021064801F06BFA0A2301220DF19E
:1001AC000701044801F079FF03B05DF804FB00BFC0
:1001BC00000C01400009002038B504460D46012210
:1001CC008021054801F054FA0A23AAB221460348BB
:1001DC0001F063FF38BD00BF000C01400009002096
:1001EC00F8B5064616F8012B09E039462046FFF70C
:1001FC00E3FF3C440FE000F0E1FD2A462646531E87
:10020C00DDB292B1344614F8020BFFF7BDFF7678DD
:10021C0016F07F07E9D116F0800FEED014F8010B21
:10022C00FF28E8D14FF4FA70E5E7F8BDF0B583B0DC
:10023C0007460D4616461C462A20FFF7A5FF00234D
:10024C008DF8043001378DF805708DF806300136C5
:10025C008DF8076004210DEB0100FFF7ADFF2B209B
:10026C00FFF792FF02358DF8055002348DF80740E8
:10027C0004210DEB0100FFF79FFF2C20FFF784FFFB
:10028C0003B0F0BD82B02DE9F04F83B093460D93CF
:10029C00BDF83C80BDF84070C0B2C9B29DF8345076
:1002AC004219D2B29DF835A001EB0A03DBB2013B37
:1002BC00013ADBB2D2B2FFF7B9FF4FF000091DE0F3
:1002CC003B0A8DF804308DF80570022101A8FFF768
:1002DC0073FF0134A5420FD906FA04F313F4004F4F
:1002EC00EED04FEA18238DF804308DF805800221EA
:1002FC0001A8FFF761FFECE709F10109CA4508D92C
:10030C00ABF120030AFB03930E9A32F8136000241E
:10031C00E0E703B0BDE8F04F02B0704708B501222A
:10032C004FF48071014801F0A3F908BD000C0140A5
:10033C0008B5FFF70DFFFFF715FF0648FFF750FF55
:10034C000548FFF74DFF0548FFF74AFFFFF7E6FFAB
:10035C0008BD00BF3C3900082C39000800390008E2
:10036C0082B02DE9F04385B006460D4617460D9335
:10037C00BDF83C90BDF84080FFF7EAFE10E0013775
:10038C0000260DE0CDF80880CDF804900E9B00936C
:10039C000D9B29463046FFF775FF3444A6B2013752
:1003AC003A787AB19DF8344033199F2BEADD9DF8E9
:1003BC0035301D44ADB22B447F2B03DC202ADED01C
:1003CC000026DFE7FFF7AAFF05B0BDE8F04302B057
:1003DC0070472DE9F04186B005460C4606A901E9A7
:1003EC000C00BDF83070BDF834809DF838309DF8A5
:1003FC001060012B11D0022B23D013B106B0BDE835
:10040C00F081CDF808800197059B00931346224696
:10041C0001460020FFF7A4FFF0E72046FFF770FE2F
:10042C0006FB00F080B2C0F1A000CDF80880019767
:10043C00059B0093049B2246294680B2FFF790FF50
:10044C00DCE72046FFF75CFE06FB00F0C0F1A000E5
:10045C00CDF808800197059B0093049B2246294602
:10046C00C0F34F00FFF77CFFC8E700002DE9F04117
:10047C0082B0BDF820709F283CD880460C461646AA
:10048C001D467F2936D88318A02B02DDC0F1A006AB
:10049C00B6B26319802B02DDC4F18005ADB2FFF753
:1004AC0057FE5FFA88F0E1B28219D2B24B19DBB277
:1004BC00013B013ADBB2D2B2FFF7B8FE3B0A8DF832
:1004CC0004308DF80570012280210C4801F0D0F821
:1004DC000BE00A23022201A9094801F0DEFD013CD0
:1004EC00A4B2002CF5D1013DADB20DB13446F8E704
:1004FC00FFF714FF02B0BDE8F08100BF000C014013
:10050C000009002000B583B000908023A0220021B8
:10051C000846FFF7ABFF03B05DF804FB00B585B0F0
:10052C0000230193029303931848194A02604FF475
:10053C008072826003730122027582614FF4602223
:10054C00C26143600223036100F096FEA8B9002348
:10055C00019301220292039301A90C4800F008FDBB
:10056C0070B9012301930223029301A9074800F0FB
:10057C00FFFC40B905B05DF804FB00F0F5F8E6E7C8
:10058C0000F0F2F8EDE700F0EFF8F3E738000020A8
:10059C000024014000B587B0002302930393049319
:1005AC0005930268104B9A4202D007B05DF804FB29
:1005BC0003F56C439A6942F400729A619A6902F4E9
:1005CC0000720092009A9A6942F004029A619B6947
:1005DC0003F004030193019B03230293039302A9E9
:1005EC00024800F037FFE0E700240140000801401A
:1005FC0038B504460F4B43600F4B0360FF252A466A
:10060C00002100F2062001F0E9FE2A46002104F147
:10061C00080001F0E3FE2A46002104F2053001F047
:10062C00DDFE2A46002104F2071001F0D7FE00205F
:10063C0038BD00BF9C0900205809002000207047DD
:10064C000020704710B50423037000248471C4711A
:10065C000472447244808480FF2203490A3001F002
:10066C00C5FE204610BD00BF783900080020704739
:10067C002DE9F04188B00024049405940694079465
:10068C00254B9A6942F020029A619A6902F0200285
:10069C000192019A9A6942F004029A619A6902F0F5
:1006AC0004020292029A9A6942F008029A619B69CA
:1006BC0003F008030393039BDFF8608022464FF49A
:1006CC000061404600F0D4FF154D22464FF4E07116
:1006DC00284600F0CDFF03230493059402260696CA
:1006EC0004A9284600F0B6FE4FF4006304930127DA
:1006FC0005970694079604A9404600F0ABFE4FF40C
:10070C00E073049305970694079604A9284600F015
:10071C00A1FE08B0BDE8F0810010024000080140C5
:10072C00000C014038B505460E4C204600F004FD87
:10073C000121204600F056FB204600F015FCC0F3CA
:10074C0007102870204600F0F7FC0121204600F02D
:10075C0049FB204600F008FCC0F30710687000202D
:10076C0038BD00BF3800002072B6FEE700B595B06A
:10077C00282200210DEB020001F030FE002305932E
:10078C00069307930893099301930293039304939D
:10079C0001220A924FF480330B930E920222119293
:1007AC0012934FF4E01313930AA800F07DFFC8B91D
:1007BC000F23059302210691002307934FF4A062A7
:1007CC000892099305A801F0AFF968B902230193C7
:1007DC004FF40043039301A801F082FA30B915B02D
:1007EC005DF804FBFFF7C0FFFFF7BEFFFFF7BCFF90
:1007FC0000B5ADF21C5D00F0BDFAFFF7B7FFFFF7D7
:10080C0037FFFFF78BFE00F0EDF900F005FA00F072
:10081C006FF90023ADF814350DF5A26000F04AF81D
:10082C000DF20440FFF70EFF6846FFF7E1FE0DF2F4
:10083C001450FFF777FF0DF214510DF5A26000F084
:10084C002BF90DF204420DF214510DF5A26000F0DB
:10085C00F1F869460DF20440FFF708FF012808D0B3
:10086C006846FFF7EBFE0128E1D105238DF804342F
:10087C0002E005238DF804349DF80434052B04D0D4
:10088C0000200DF21C5D5DF804FB69460DF204407E
:10089C00FFF7D6FEFEE738B505460C460846FFF7CF
:1008AC002FFCC2B20132D2B22146284601F09EFD85
:1008BC00002038BD2DE9F04184B00446FFF738FD27
:1008CC001F20FFF71FFE0123237063700026A67004
:1008DC00424D43492846FFF7DEFF424905F16400CB
:1008EC00FFF7D9FF404905F1C800FFF7D4FF3F4996
:1008FC0005F59670FFF7CFFF3D4905F5C870FFF77A
:10090C00CAFF3C4905F5FA70FFF7C5FF3A4905F5F2
:10091C001670FFF7C0FF394905F52F70FFF7BBFFC5
:10092C00374905F54870FFF7B6FF364905F5617094
:10093C00FFF7B1FF344F354C39462046FFF7ABFF7C
:10094C00334904F16400FFF7A6FF324904F1C800F3
:10095C00FFF7A1FF304904F59670FFF79CFF2F4974
:10096C0004F5C870FFF797FF2D4904F5FA70FFF7EF
:10097C0092FF2C4904F51670FFF78DFF394604F5EC
:10098C002F70FFF788FF394604F54870FFF783FF97
:10099C00254904F56170FFF77EFF244B0222029279
:1009AC004FF01F08CDF804804FF6E07700970CCB82
:1009BC0029460A20FFF70DFD1D4B0296CDF8048049
:1009CC0000970CCB21463220FFF703FD4FF47A70D1
:1009DC0000F0F4F9304604B0BDE8F08118050020B1
:1009EC00803900088C3900089C390008AC390008A3
:1009FC00B8390008C4390008D4390008E4390008B3
:100A0C00F0390008F8390008383B0008CC00002009
:100A1C00043A0008283A0008503A00087C3A0008CA
:100A2C00A43A0008B83A0008CC3A000800000020AC
:100A3C00080000200020704770B584B004464AF2CC
:100A4C001450FFF75FFD642303FB04F40E4B0222EA
:100A5C0002924AF2145601964FF4784200920CCB53
:100A6C000A4921440A20FFF7B4FC094B00250295E2
:100A7C0001961F2200920CCB064921443220FFF72D
:100A8C00A8FC284604B070BD00000020B40400206F
:100A9C00080000206800002038B504460D464FF4CD
:100AAC007A7000F08BF92B78C82B0ED923780A2B8F
:100ABC0008D801332370012363706378012B11D0A4
:100ACC00002038BD02232370F5E7772BF5D8237867
:100ADC00022B04D9013B237001236370EDE705233E
:100AEC002370F9E72078FFF7A7FF00236370E7E78F
:100AFC0008B50E480E4B03604FF4827343604FF4FD
:100B0C00004383600023C360036143614FF40072B0
:100B1C008261C3610362436283620A23C36201F090
:100B2C0061FA00B908BDFFF71FFEFBE700090020C2
:100B3C000038004000B587B0002302930393049360
:100B4C0005930268124B9A4202D007B05DF804FB81
:100B5C0003F5EC33DA6942F48042DA61DA6902F4C3
:100B6C0080420092009A9A6942F008029A619B694D
:100B7C0003F008030193019B4FF4204302930223DB
:100B8C0003930323059302A9024800F063FCDCE7FE
:100B9C0000380040000C014082B00A4B9A6942F0C8
:100BAC0001029A619A6902F001020092009ADA69D4
:100BBC0042F08052DA61DB6903F080530193019BB0
:100BCC0002B0704700100240FEE7FEE7FEE7FEE7CA
:100BDC00FEE770477047704708B500F0DDF808BDB8
:100BEC007047000008B50A480A4B03604FF4E13324
:100BFC00436000238360C36003610C224261836104
:100C0C00C36101F071FB00B908BDFFF7ADFDFBE757
:100C1C009C0900200038014008B50A480A4B0360C3
:100C2C004FF4E133436000238360C36003610C2203
:100C3C0042618361C36101F057FB00B908BDFFF746
:100C4C0093FDFBE7580900200048004010B588B020
:100C5C000023049305930693079303682D4A93424C
:100C6C0004D02D4A93422BD008B010BD2B4B9A695F
:100C7C0042F480429A619A6902F480420092009A8E
:100C8C009A6942F004029A619B6903F00403019390
:100C9C00019B4FF4007304930223059303230793E2
:100CAC001F4C04A9204600F0D5FB4FF4806304933D
:100CBC0000230593069304A9204600F0CBFBD3E751
:100CCC00164BDA6942F48022DA61DA6902F4802286
:100CDC000292029A9A6942F008029A619B6903F0A7
:100CEC0008030393039B4FF480630493022305933F
:100CFC00032307930B4C04A9204600F0ABFB4FF4E5
:100D0C000063049300230593069304A9204600F086
:100D1C00A1FBA9E700380140004800400010024048
:100D2C0000080140000C014010B504460E4B1A7827
:100D3C004FF47A73B3FBF2F30C4A1068B0FBF3F088
:100D4C0000F074FB68B90F2C01D901200AE00022D5
:100D5C0021464FF0FF3000F059FB054B1C60002082
:100D6C0000E0012010BD00BF140000201000002086
:100D7C001800002008B5074A136843F010031360ED
:100D8C00032000F031FB0F20FFF7CEFFFFF704FF2D
:100D9C00002008BD00200240034A1168034B1B7859
:100DAC000B441360704700BFE009002014000020C2
:100DBC00014B1868704700BFE009002038B50446A5
:100DCC00FFF7F6FF0546B4F1FF3F02D0044B1B784A
:100DDC001C44FFF7EDFF401BA042FAD338BD00BF07
:100DEC0014000020F0B583B005460C460023019397
:100DFC00FFF7DEFF2B689A6812F4807F23D1074639
:100E0C005A6812F4807F03D1DB6A13F4700F29D077
:100E1C00504B1E68022000F0EFFFB6FBF0F62B687B
:100E2C0019694D4A114236D1D96802F15C4211421E
:100E3C0031D11969494A114240D1DA68484B1A42FA
:100E4C003ED0292341E0AB6A43F02003AB62002380
:100E5C0085F82430012003B0F0BD2B681B6813F01B
:100E6C00020F0FD02B681B6813F0020F4FD1B4F197
:100E7C00FF3FF7D0002CF0D0FFF79AFFC31BA34223
:100E8C00F0D9EAE7AB6A43F00403AB62002385F8C0
:100E9C0024300320DFE71969304A114204D1D968A4
:100EAC0002F16E4211420DD019692E4A0A405AB90C
:100EBC00DA682C4B13405BB1FC2306E0292304E0D9
:100ECC00142302E0542300E0FC2303FB06F607E0A6
:100EDC005423FAE7019BB34210D3019B01330193D6
:100EEC00019BB34213D2B4F1FF3FF6D0002CF1D0EA
:100EFC00FFF75EFFC01BA042EFD9EBE7AB6A43F0F4
:100F0C000403AB62002385F824300320A3E72B688D
:100F1C006FF012021A60AB6A43F40073AB622B6879
:100F2C009B6803F46023B3F5602F01D0002092E797
:100F3C00287B60B9AB6A23F48073AB62AB6A13F4A1
:100F4C00805F88D1AB6A43F00103AB6283E700207A
:100F5C0081E700BF100000202449922492244912FA
:100F6C0092244900499224000368D86C7047000011
:100F7C0030B482B00022019290F82420012A00F0B3
:100F8C008F800346012280F824204A68062A2DD837
:100F9C000468606B02EB8202053A4FF01F0C0CFAEE
:100FAC0002FC20EA0C000D6805FA02F202436263AF
:100FBC000A68092A38D91C68E06802EB42021E3A1A
:100FCC004FF0070C0CFA02FC20EA0C008D6805FAB5
:100FDC0002F20243E2600A68103A012A34D9002076
:100FEC00002283F8242002B030BC70470C2A0DD8A4
:100FFC000568286B02EB8202233A1F24944020EAF6
:10100C0004000C68944020432863D1E70568E86A23
:10101C0002EB8202413A1F24944020EA04000C683F
:10102C0094402043E862C3E71C68206902EB42024B
:10103C004FF0070C0CFA02FC20EA0C008D6805FA44
:10104C0002F202432261C6E71A681648824205D0B2
:10105C009A6A42F020029A620120C1E7906810F46B
:10106C00000F1BD1906840F4000090600A68102AB1
:10107C0001D00020B4E70C4A12680C49A1FB021203
:10108C00920C02EB82025200019202E0019A013AA8
:10109C000192019A002AF9D10020A1E700209FE7D4
:1010AC000220A0E7002401401000002083DE1B4337
:1010BC0030B583B00023019303689A6812F0010FD6
:1010CC0033D104469A6842F001029A60184B1B68AF
:1010DC00184AA2FB03239B0C019302E0019B013BEA
:1010EC000193019B002BF9D1FFF762FE05462368A3
:1010FC009B6813F0010F16D1FFF75AFE431B022B0E
:10110C00F5D923689B6813F0010FF0D1A36A43F063
:10111C001003A362E36A43F00103E362002384F843
:10112C002430012002E0002000E0002003B030BD9C
:10113C001000002083DE1B4390F82430012B68D074
:10114C0010B50446012380F82430FFF7B1FF0028C6
:10115C005BD1A36A23F4407323F0010343F480733F
:10116C00A36223682C4A934227D0A26A22F48012ED
:10117C00A2625A6812F4806F05D0A26A22F440521F
:10118C0042F48052A262A26A12F4805F2BD0E26A0F
:10119C0022F00602E262002284F824206FF00202A0
:1011AC001A6023689A6802F46022B2F5602F1DD091
:1011BC009A6842F480129A602AE0A2F58062526822
:1011CC0012F4702FD1D0A26A42F48012A262134A98
:1011DC00526812F4806FD6D0A26A22F4405242F4C4
:1011EC008052A262CFE70022E262D4E70A4A93421D
:1011FC0004D09A6842F4A0029A6009E0A2F58062D9
:10120C00526812F4702FD3D1F3E7002384F8243002
:10121C0010BD0220704700BF00280140002401408F
:10122C0038B503689A6812F0010F01D1002038BD5F
:10123C0004469A6822F001029A60FFF7B9FD054650
:10124C0023689B6813F0010F13D0FFF7B1FD431B0C
:10125C00022BF5D923689B6813F0010FF0D0A36A19
:10126C0043F01003A362E36A43F00103E36201203D
:10127C00DDE70020DBE7000000287BD070B50446DA
:10128C00836A002B4DD02046FFF7CAFFA36A13F0E8
:10129C00100369D1002867D1A26A22F4885222F087
:1012AC00020242F00202A2626268E1690A43217BF7
:1012BC0042EA4102A568B5F5807F02D0012D36D0F7
:1012CC001D46267D012E35D02668716821F46941B2
:1012DC00294371602568AE68274931401143A960E4
:1012EC00A168B1F5807F01D0012902D12369013BAE
:1012FC001B052568E96A21F470010B43EB62236836
:10130C0099681E4B0B409A4225D0A36A23F0120316
:10131C0043F01003A362E36A43F00103E36201208C
:10132C0027E0C36280F82430FFF734F9ABE74FF4C1
:10133C008075C6E731B9A169013945EA413141F4FB
:10134C000065C1E7A16A41F02001A162E16A41F0A8
:10135C000101E162B8E70023E362A36A23F003030F
:10136C0043F00103A36204E0A36A43F01003A362F9
:10137C00012070BD01207047FDF7E1FFFE0E1FFF3D
:10138C00002808DB0901C9B200F1604000F561409A
:10139C0080F80013704700F00F000901C9B2014B2F
:1013AC001954704714ED00E000B500F00700C0F1CF
:1013BC00070CBCF1040F28BF4FF0040C031D062BC7
:1013CC000FD9C31E4FF0FF3E0EFA0CF021EA0001BC
:1013DC0099400EFA03FE22EA0E0241EA02005DF881
:1013EC0004FB0023EEE70000074AD36823F4E06314
:1013FC001B041B0C000200F4E060034343F0BF63CA
:10140C0043F40033D360704700ED00E010B50446A0
:10141C00054BD868C0F30220FFF7C6FF01462046F3
:10142C00FFF7AEFF10BD00BF00ED00E00138B0F1DA
:10143C00807F0BD24FF0E0235861054AF02182F8EF
:10144C0023100020986107221A6170470120704711
:10145C0000ED00E070B582B00024A446A2E07E4D01
:10146C00AB4210D007D97D4DAB420CD005F5803581
:10147C00AB4208D013E0A5F58015AB4203D005F5BF
:10148C007025AB4207D18B68002B55D0012B4ED069
:10149C004261082403E0A5F58015AB42F3D0BEF100
:1014AC00FF0F4BD806464FEA8C0233680F25954048
:1014BC0023EA050304FA02F2134333604B6813F07A
:1014CC00805F6DD0664B9A6942F001029A619B690C
:1014DC0003F001030193019B4FEA9C02951C614BA5
:1014EC0053F825600CF00305AD000F23AB4026EA42
:1014FC0003065D4B984228D003F58063984200F0B8
:10150C008D8003F58063984200F08A8003F5806338
:10151C00984218D0042319E0CC68C0E7CC68043496
:10152C00BDE7CC680834BAE7CC680C34B7E7026185
:10153C000824B4E70024B2E70424B0E7061DACF19C
:10154C0008029200B1E7032300E00023AB403343D1
:10155C000232444D45F822304B6813F4803F61D081
:10156C00424A136843EA0E0313604B6813F4003FBE
:10157C005ED03E4A536843EA0E0353604B6813F443
:10158C00801F5BD0394A936843EA0E0393604B6823
:10159C0013F4001F58D0354AD36843EA0E03D360C6
:1015AC000CF1010C0B6833FA0CF253D0012202FA45
:1015BC000CF203EA020E32EA0303F1D14B68122B50
:1015CC003FF64DAF122B3FF66AAF01A555F823F04D
:1015DC0093140008251500082F1500084115000864
:1015EC00AB140008AB140008AB140008AB140008D3
:1015FC00AB140008AB140008AB140008AB140008C3
:10160C00AB140008AB140008AB140008AB140008B2
:10161C00AB1400082915000835150008012395E7BF
:10162C00022393E7114A136823EA0E0313609CE725
:10163C000E4A536823EA0E0353609FE70B4A9368E4
:10164C0023EA0E039360A2E7084AD36823EA0E0349
:10165C00D360A5E702B070BD00002210000031106D
:10166C00001002400000014000080140000401404D
:10167C000AB10161704709040161704782B0084BDF
:10168C001B68084AA2FB03235B0A00FB03F30193CC
:10169C0000BF019B5A1E0192002BF9D102B070477A
:1016AC0010000020D34D6210002800F0F18170B5BD
:1016BC0082B00446036813F0010F2CD0994B5B6881
:1016CC0003F00C03042B1DD0964B5B6803F00C034A
:1016DC00082B12D06368B3F5803F41D0002B55D155
:1016EC0003F1804303F504331A6822F480321A6044
:1016FC001A6822F480221A6037E08A4B5B6813F474
:10170C00803FE7D0874B1B6813F4003F03D063681E
:10171C00002B00F0BF81236813F0020F75D0814BB2
:10172C005B6813F00C0F5FD07E4B5B6803F00C030F
:10173C00082B54D02369002B00F08A807A4B0122AD
:10174C001A60FFF735FB0546764B1B6813F0020F4A
:10175C0075D1FFF72DFB401B0228F5D903209EE124
:10176C00704A136843F480331360636843B3FFF724
:10177C001FFB05466B4B1B6813F4003FCBD1FFF7E7
:10178C0017FB401B6428F5D9032088E1B3F5A02F83
:10179C0009D0644B1A6822F480321A601A6822F459
:1017AC0080221A60E1E703F18043A3F53C331A6809
:1017BC0042F480221A601A6842F480321A60D4E72C
:1017CC00FFF7F6FA0546574B1B6813F4003FA2D0FF
:1017DC00FFF7EEFA401B6428F5D903205FE1514B6B
:1017EC005B6813F4803FA5D14E4B1B6813F0020FBE
:1017FC0003D02369012B40F04F814A4A136823F030
:10180C00F803616943EAC1031360236813F0080FFE
:10181C0033D0A369002B5CD0434B0122C3F8802446
:10182C00FFF7C6FA05463F4B5B6A13F0020F21D156
:10183C00FFF7BEFA401B0228F5D903202FE1394AE5
:10184C00136823F0F803616943EAC1031360DCE712
:10185C00354B00221A60FFF7ABFA0546314B1B687B
:10186C0013F0020FD1D0FFF7A3FA401B0228F5D9D1
:10187C00032014E10120FFF701FF236813F0040F8C
:10188C0000F09680274BDB6913F0805F34D1254B39
:10189C00DA6942F08052DA61DB6903F0805301931C
:1018AC00019B0125214B1B6813F4807F26D0E36834
:1018BC00012B3DD0002B53D103F1804303F50433AE
:1018CC001A6A22F001021A621A6A22F004021A62DF
:1018DC0033E0154B0022C3F88024FFF769FA054664
:1018EC00104B5B6A13F0020FC7D0FFF761FA401B75
:1018FC000228F5D90320D2E00025D3E70B4A136860
:10190C0043F480731360FFF753FA0646074B1B68CA
:10191C0013F4807FCBD1FFF74BFA801B6428F5D9E9
:10192C000320BCE000100240000042420070004066
:10193C005F4A136A43F001031362E36833B3FFF7A2
:10194C0037FA06465A4B1B6A13F0020F2FD1FFF7DA
:10195C002FFA801B41F288339842F3D903209EE082
:10196C00052B09D0524B1A6A22F001021A621A6A2C
:10197C0022F004021A62E0E74D4B1A6A42F00402AC
:10198C001A621A6A42F001021A62D6E7FFF710FADD
:10199C000646474B1B6A13F0020F08D0FFF708FAF4
:1019AC00801B41F288339842F3D9032077E0E5B9E4
:1019BC00E369002B72D03E4A526802F00C02082AEE
:1019CC0056D0022B17D03B4B00221A66FFF7F0F9CA
:1019DC000446374B1B6813F0007F47D0FFF7E8F93C
:1019EC00001B0228F5D9032059E0314AD36923F0B2
:1019FC008053D361DCE72F4B00221A66FFF7D8F92E
:101A0C0005462B4B1B6813F0007F06D0FFF7D0F96F
:101A1C00401B0228F5D9032041E0236AB3F5803F2F
:101A2C001AD023494B6823F47413226A606A024368
:101A3C0013434B601F4B01221A66FFF7B9F904469A
:101A4C001B4B1B6813F0007F0ED1FFF7B1F9001B85
:101A5C000228F5D9032022E0154A536823F40033F9
:101A6C00A1680B435360DCE7002018E0002016E06F
:101A7C00012B16D00E4B5B6803F48031226A914225
:101A8C0011D103F47013626A93420ED1002006E068
:101A9C0001207047012002E0012000E0002002B08C
:101AAC0070BD0120FBE70120F9E70120F7E700BF3B
:101ABC00001002400000424286B0174B0FCB0DF1D4
:101ACC00180C0CE90F0040F20123ADF80430134B55
:101ADC005B6803F00C02082A02D0114806B070476C
:101AEC00C3F3834218326A4412F8100C13F4803F8B
:101AFC000DD00A4B5B68C3F3404318336B4413F8A7
:101B0C00143C074A02FB00F0B0FBF3F0E6E7054B90
:101B1C0003FB00F0E2E700BF283B00080010024086
:101B2C0000127A0000093D00002800F0A08070B57A
:101B3C000D460446524B1B6803F007038B420BD235
:101B4C004F4A136823F007030B431360136803F029
:101B5C0007038B4240F08D80236813F0020F17D0DF
:101B6C0013F0040F04D0474A536843F4E063536006
:101B7C00236813F0080F04D0424A536843F46053AF
:101B8C005360404A536823F0F003A1680B43536041
:101B9C00236813F0010F31D06368012B20D0022B86
:101BAC0025D0384A126812F0020F64D035494A68C1
:101BBC0022F0030213434B60FFF7FAF80646314B51
:101BCC005B6803F00C036268B3EB820F16D0FFF76F
:101BDC00EFF8801B41F288339842F0D9032045E09E
:101BEC00284A126812F4003FE0D101203EE0254A59
:101BFC00126812F0007FD9D1012037E0204B1B680E
:101C0C0003F00703AB420AD91D4A136823F00703FC
:101C1C002B431360136803F00703AB422DD12368E9
:101C2C0013F0040F06D0174A536823F4E063E168FD
:101C3C000B435360236813F0080F07D0114A536805
:101C4C0023F46053216943EAC1035360FFF734FF67
:101C5C000C4B5B68C3F303130B4AD35CD8400B4BA0
:101C6C0018600B4B1868FFF75FF8002070BD01205F
:101C7C0070470120FAE70120F8E70120F6E700BFE2
:101C8C000020024000100240183B00081000002009
:101C9C0018000020014B1868704700BF100000208E
:101CAC0008B5FFF7F7FF044B5B68C3F30223034A45
:101CBC00D35CD84008BD00BF00100240103B0008A8
:101CCC0008B5FFF7E7FF044B5B68C3F3C223034A75
:101CDC00D35CD84008BD00BF00100240103B000888
:101CEC0070B582B00446036813F0010F36D03F4B39
:101CFC00DB6913F0805F49D13C4BDA6942F08052CA
:101D0C00DA61DB6903F080530193019B0125384BA9
:101D1C001B6813F4807F3BD0344B1B6A13F4407365
:101D2C0013D0626802F440729A420ED02F4A136AA2
:101D3C0023F440702F490126C1F840640026C1F8F5
:101D4C004064106213F0010F36D1284A136A23F451
:101D5C00407361680B431362002D3ED1236813F06E
:101D6C00020F06D0214A536823F44043A1680B4369
:101D7C005360236813F0100F34D01C4A536823F4BB
:101D8C008003E1680B43536000202CE00025BEE784
:101D9C00174A136843F480731360FFF709F806467B
:101DAC00134B1B6813F4807FB6D1FFF701F8801B2F
:101DBC006428F5D9032016E0FEF7FAFF06460B4B14
:101DCC001B6A13F0020FC0D1FEF7F2FF801B41F229
:101DDC0088339842F3D9032005E0D36923F080536C
:101DEC00D361BBE7002002B070BD00BF0010024001
:101DFC00007000400000424200B587B08446394B69
:101E0C000FCB0DF1180E0EE90F0040F20123ADF8C7
:101E1C000430BCF1020F56D0BCF1100F06D0BCF14F
:101E2C00010F2ED0002007B05DF804FB2E4B5A6832
:101E3C00186810F08070F6D0C2F3834318336B44EB
:101E4C0013F8100C12F4803F17D0274B5B68C3F3C8
:101E5C00404318336B4413F8142C244BB3FBF2F3AC
:101E6C0003FB00F0204B5B6813F4800FDBD14000C8
:101E7C001F4BA3FB00304008D5E71E4B03FB00F0C3
:101E8C00F0E7194B1B6A40F202321A40B2F5817F1F
:101E9C0024D003F44073B3F5007F04D0B3F5407F36
:101EAC0009D00020BFE7104A526A12F0020FF5D099
:101EBC0049F64040B7E70C4B186810F40030B2D02C
:101ECC004FF22440AFE7FFF7FBFE074B5B68C3F311
:101EDC00813301335B00B0FBF3F0A4E74FF4004017
:101EEC00A1E700BF283B00080010024000127A0056
:101EFC00ABAAAAAA00093D002DE9F04782B005461D
:101F0C00884617461E46FEF753FF0A9B1B1A03EB27
:101F1C000609FEF74DFF8246284B1B68C3F3CB33F3
:101F2C0009FB03F301932B689C6838EA04040CBF8B
:101F3C0001230023BB423DD0B6F1FF3FF3D0FEF7A7
:101F4C0037FFA0EB0A00484507D2019A02B14A4676
:101F5C00019B013B01939146E5E72A68536823F006
:101F6C00E00353606B68B3F5827F0BD0AB6AB3F5BB
:101F7C00005F14D0012385F85130002385F85030D0
:101F8C00032018E0AB68B3F5004F02D0B3F5806FB7
:101F9C00ECD12A68136823F040031360E6E72A6843
:101FAC00136823F4005313602A68136843F4005336
:101FBC001360DFE7002002B0BDE8F08710000020BE
:101FCC0010B582B004460B46009200228021FFF728
:101FDC0093FF08B902B010BD636D43F02003636535
:101FEC000320F7E7002856D010B50446436A33B9EE
:101FFC004368B3F5827F05D00023C36102E0002360
:10200C00036143610023A36294F85130002B3CD050
:10201C00022384F851302268136823F040031360C4
:10202C00636803F48273A26802F404421343E26807
:10203C0002F400621343226902F002021343626944
:10204C0002F001021343A26902F400721343E26925
:10205C0002F038021343226A02F080021343A26A90
:10206C0002F40052216813430B60638B226803F067
:10207C00040353602268D36923F40063D361002006
:10208C006065012384F8513010BD84F8503020462F
:10209C00FEF750FDBCE7012070472DE9F04383B0FB
:1020AC001D4690F85030012B00F0D1800446884634
:1020BC009146012380F85030FEF77AFE074694F8DB
:1020CC005160F6B2012E40F0AF80B8F1000F00F075
:1020DC00AC80B9F1000F00F0A880032384F85130D4
:1020EC0000236365C4F83080A4F83490A4F83690CB
:1020FC00A363A387E38763642364A368B3F5004FEA
:10210C001ED023681A6812F0400F03D11A6842F0EF
:10211C0040021A60E368B3F5006F1CD0636813B11A
:10212C00B9F1010F52D1226B236812781A73236B09
:10213C0001332363E38E9BB2013B9BB2E38645E004
:10214C002268136823F0400313602268136843F479
:10215C0080431360D5E7636813B1B9F1010F16D151
:10216C00226B23681288DA60236B02332363E38EBD
:10217C009BB2013B9BB2E38609E0FEF719FEC01B44
:10218C00A84202D3B5F1FF3F59D1002D59D0E38EAF
:10219C009BB2002B33D023689A6812F0020FECD05C
:1021AC00226B1288DA60236B02332363E38E9BB2BB
:1021BC00013B9BB2E386EAE7FEF7FAFDC01BA8429F
:1021CC0002D3B5F1FF3F3ED1002D3ED0E38E9BB242
:1021DC00ABB123689A6812F0020FEDD0226B127823
:1021EC001A73236B01332363B4F836C01FFA8CFCCB
:1021FC000CF1FF3C1FFA8CFCA4F836C0E6E73A461B
:10220C0029462046FFF7DCFE08B120236365A3684E
:10221C0033B901932368DA6801929B680193019B9F
:10222C00636D13B9002600E00226012384F85130B7
:10223C00002384F85030304603B0BDE8F083032609
:10224C00F3E70326F1E70326EFE70326EDE7022683
:10225C00F1E7000010B504460268136923F44053FB
:10226C00C1680B43136183680269134342691A43C3
:10227C000168CB6823F4B05323F00C031343CB60F9
:10228C000268536923F4407381690B4353610268FC
:10229C00134B9A4220D0FFF703FD024602EB820259
:1022AC0002EB820263689B00B2FBF3F20D48A0FBC9
:1022BC0002314909642303FB11231B013233A0FBB8
:1022CC0003035B0903F0F00202EB011203F00F03AE
:1022DC00216813448B6010BDFFF7F2FC0246DDE76A
:1022EC00003801401F85EB5158B310B5044690F8E7
:1022FC003D300BB3242384F83D302268D36823F49B
:10230C000053D3602046FFF7A5FF2268136923F41E
:10231C00904313612268536923F02A0353612268A6
:10232C00D36843F40053D36000202064202384F846
:10233C003D3084F83E3010BD80F83C30FEF786FC12
:10234C00D8E70120704700000C480D490D4A0023C6
:10235C0002E0D458C4500433C4188C42F9D30A4A4E
:10236C000A4C002301E013600432A242FBD3FEF7B7
:10237C0037FC00F00FF8FEF73BFA70470000002026
:10238C001C000020443B00081C000020E409002035
:10239C00FEE7000070B500260C4D0D4C641BA4101C
:1023AC00A64209D100F036F800260A4D0A4C641BEF
:1023BC00A410A64205D170BD55F8043B98470136D0
:1023CC00EEE755F8043B98470136F2E73C3B000832
:1023DC003C3B00083C3B0008403B000803460244E1
:1023EC00934200D1704703F8011BF9E7034610B57F
:1023FC00013932B111F8014F013A03F8014B002CAD
:10240C00F7D100211A44934200D110BD03F8011BEF
:10241C00F9E70000F8B500BFF8BC08BC9E46704751
:0C242C00F8B500BFF8BC08BC9E46704725
:102438000000000000000000000000000000000094
:102448000000000000000000000000000000000084
:10245800000000000000000C000C000C000C000C38
:10246800000C000C000C000C000C000C0000000C10
:10247800000C0000000000000000001B001B001BF7
:10248800001B001B0000000000000000000000000E
:10249800000000000000000000000000000080199B
:1024A800801980198019C07FC07F80190033C07FD0
:1024B800C07F003300330033003300000000000009
:1024C8000000001E003F807580650074003C001EFF
:1024D80000078005806580658075003F001E000448
:1024E800000400000000007000D840D8C0D880D98F
:1024F80000730006000C801BC036C066C046C006CC
:1025080080030000000000000000001E003F0033B0
:1025180000330033001E000CC03CC066806380613D
:102528008063C03E801C0000000000000000000C1A
:10253800000C000C000C000C000000000000000063
:102548000000000000000000000000000000000083
:10255800800000010003000600060004000C000CC7
:10256800000C000C000C000C000400060006000320
:1025780000018000002000100018000C000C00046E
:102588000006000600060006000600060004000C0F
:10259800000C0018001000200000000C002D003F67
:1025A800001E0033000000000000000000000000D2
:1025B8000000000000000000000000000000000013
:1025C8000000000C000C000C000CC0FFC0FF000C49
:1025D800000C000C000C00000000000000000000CF
:1025E80000000000000000000000000000000000E3
:1025F80000000000000000000000000C000C0004B7
:1026080000040008000000000000000000000000B6
:10261800000000000000001E001E00000000000076
:1026280000000000000000000000000000000000A2
:102638000000000000000000000000000000000092
:102648000000000C000C0000000000000000000367
:10265800000300030006000600060006000C000C3C
:10266800000C000C00180018001800000000000002
:102678000000001E003F0033806180618061806D32
:10268800806D8061806180610033003F001E000022
:102698000000000000000006000E001E00360026A4
:1026A80000060006000600060006000600060006F2
:1026B80000060000000000000000001E003F8073BC
:1026C80080618061800100030006000C0018003062
:1026D8000060807F807F0000000000000000001C78
:1026E800003E006300630003000E000E000380013B
:1026F800800180618073003F001E00000000000020
:1027080000000006000E000E001E001E0016003617
:1027180000360066807F807F000600060006000005
:10272800000000000000007F007F00600060006083
:10273800006E007F80638001800180618073003FAC
:10274800001E0000000000000000001E003F803353
:1027580080610060006E007F8073806180618061AD
:102768008033003F001E0000000000000000807F52
:10277800807F80010003000300060006000C000CA7
:10278800000C0008001800180018000000000000E5
:102798000000001E003F8063806180610021001EF0
:1027A800003F8061806180618061003F001E000001
:1027B800000000000000001E003F0073806180617F
:1027C80080618073803F801D800180610073003FBD
:1027D800001E0000000000000000000000000000D3
:1027E8000000000C000C00000000000000000000C9
:1027F8000000000C000C00000000000000000000B9
:102808000000000000000000000C000C00000000A8
:10281800000000000000000C000C00040004000888
:10282800000000000000000080008003000E003857
:1028380000600038000E80038000000000000000E7
:102848000000000000000000000000000000807F81
:10285800807F00000000807F807F00000000000073
:102868000000000000000000000000000000000060
:1028780000400070001C000780010007001C007069
:102888000040000000000000000000000000001FE1
:10289800803FC071C060C000C00180030007000E07
:1028A800000C000C0000000C000C000000000000F0
:1028B8000000001E003F803180718063806F806D52
:1028C800806D806F806700600032003E001C000051
:1028D800000000000000000E000E001B001B001B83
:1028E800001B80318031803F803F8031C060C060F4
:1028F800C0600000000000000000007C007E006353
:10290800006300630063007E007E00638061806175
:102918008063007F007E0000000000000000001EB1
:10292800003F8031806100600060006000600060EE
:10293800006080618031003F001E00000000000040
:102948000000007C007F006380638061806180619B
:1029580080618061806100630063007E007C00000C
:10296800000000000000807F807F00600060006041
:102978000060007F007F0060006000600060807F72
:10298800807F0000000000000000807F807F0060E2
:10299800006000600060007F007F006000600060F1
:1029A8000060006000600000000000000000001EE1
:1029B800003F803180610060006000608063806358
:1029C800806180618031803F001E000000000000AF
:1029D8000000806180618061806180618061807FAA
:1029E800807F80618061806180618061806100009A
:1029F800000000000000003F003F000C000C000C2D
:102A0800000C000C000C000C000C000C000C003F2B
:102A1800003F0000000000000000800180018001EC
:102A280080018001800180018001800180618061D6
:102A38008073003F001E0000000000000000C0601E
:102A48008061006300660066006C0078007C0066A8
:102A58000066006380618061C060000000000000C3
:102A680000000060006000600060006000600060BE
:102A780000600060006000600060807F807F000070
:102A8800000000000000C071C071C07BC07AC06A3D
:102A9800C06AC06EC064C060C060C060C060C06012
:102AA800C060000000000000000080718071807923
:102AB80080798079806D806D806D806580678067A2
:102AC8008067806380630000000000000000001E33
:102AD800003F003380618061806180618061806136
:102AE800806180610033003F001E0000000000008C
:102AF8000000007E007F8063806180618061806368
:102B0800007F007E006000600060006000600000E0
:102B1800000000000000001E003F0033806180615B
:102B28008061806180618061806580670033803F5B
:102B3800401E0000000000000000007E007F80634F
:102B4800806180618063007F007E006600630063AF
:102B580080618061C0600000000000000000000E7D
:102B6800001F8031803100300038001E00078003CC
:102B7800806180618031003F001E0000000000007D
:102B88000000C0FFC0FF000C000C000C000C000C83
:102B9800000C000C000C000C000C000C000C0000D9
:102BA80000000000000080618061806180618061B8
:102BB8008061806180618061806180618073003F95
:102BC800001E0000000000000000C060C060C0607F
:102BD800803180318031001B001B001B001B000E60
:102BE800000E000E00040000000000000000C0C03D
:102BF800C0C0C0C0C0C0C0C0C0CC804C804C805ECB
:102C08008052805280738061806100000000000063
:102C18000000C0C0806080610033003B001E000CD3
:102C2800000C001E001F003B80718061C0C00000C6
:102C3800000000000000C0C08061806100330033E4
:102C4800001E001E000C000C000C000C000C000CF8
:102C5800000C0000000000000000803F803F800161
:102C6800000300030006000C000C001800180030D8
:102C78000060807F807F000000000000000F000FD0
:102C8800000C000C000C000C000C000C000C000CDC
:102C9800000C000C000C000C000C000C000F000FC6
:102CA8000000001800180018000C000C000C000CA4
:102CB80000060006000600060003000300030000EB
:102CC80000000000001E001E0006000600060006A8
:102CD80000060006000600060006000600060006BC
:102CE80000060006001E001E0000000C000C001E5E
:102CF8000012003300338061806100000000000092
:102D080000000000000000000000000000000000BB
:102D180000000000000000000000000000000000AB
:102D2800000000000000000000000000E0FF0000BC
:102D3800000000380018000C00000000000000002F
:102D4800000000000000000000000000000000007B
:102D58000000000000000000000000000000001F4C
:102D6800803F80618001801F803F80618063807F19
:102D7800C038000000000000000000600060006033
:102D88000060006E007F8073806180618061806177
:102D98008073007F006E000000000000000000004B
:102DA800000000000000001E003F8073806100608A
:102DB800006080618073003F001E0000000000007A
:102DC80000008001800180018001801D803F8073A8
:102DD80080618061806180618073803F801D000018
:102DE8000000000000000000000000000000001EBD
:102DF800003F00738061807F807F00608071003FAA
:102E0800001E0000000000000000C007C00F000CFA
:102E1800000C807F807F000C000C000C000C000C64
:102E2800000C000C000C0000000000000000000076
:102E380000000000801D803F807380618061806198
:102E480080618073803F801D80018063007F003E29
:102E580000000060006000600060006F807F80718B
:102E68008061806180618061806180618061000033
:102E78000000000000000006000600000000003E00
:102E8800003E0006000600060006000600060006D2
:102E98000006000000000000000600060000000018
:102EA800003E003E0006000600060006000600067A
:102EB8000006000600060046007E003C0000006098
:102EC800006000600060806100630066006C007C48
:102ED8000076006300638061C060000000000000AD
:102EE8000000003E003E0006000600060006000640
:102EF80000060006000600060006000600060000A0
:102F0800000000000000000000000000000080DD5C
:102F1800C0FFC0CEC0CCC0CCC0CCC0CCC0CCC0CC14
:102F2800C0CC00000000000000000000000000000D
:102F38000000006F807F80718061806180618061A6
:102F480080618061806100000000000000000000D6
:102F5800000000000000001E003F80738061806157
:102F6800806180618073003F001E00000000000047
:102F78000000000000000000006E007F8073806188
:102F88008061806180618073007F006E00600060F6
:102F9800006000600000000000000000801D803F0D
:102FA800807380618061806180618073803F801D53
:102FB8008001800180018001000000000000000005
:102FC80000000067803F00390030003000300030DA
:102FD8000030003000300000000000000000000059
:102FE800000000000000001E803F80610060007F3C
:102FF800803F80018061007F001E0000000000000B
:1030080000000000000800180018007F007F00186A
:1030180000180018001800180018801F800F000002
:1030280000000000000000000000000000008061B7
:103038008061806180618061806180618063807F60
:10304800803D0000000000000000000000000000BB
:103058000000C060803180318031001B001B001BE4
:10306800000E000E00060000000000000000000036
:1030780000000000000080DD80DD80DD0055005587
:1030880000550077007700220022000000000000B1
:1030980000000000000000000000806100330033E1
:1030A800001E000C000C001E00330033806100007D
:1030B8000000000000000000000000008061806146
:1030C800803100330033001B001B001B000E000E74
:1030D800000E001C007C00700000000000000000D2
:1030E8000000C07FC07F800100030006000C0018AC
:1030F8000030C07FC07F0000000000008003800710
:1031080000060006000600060006000E001C001C53
:10311800000E000600060006000600068007800371
:103128000006000600060006000600060006000667
:103138000006000600060006000600060006000657
:10314800000600060038003C000C000C000C000CC7
:10315800000C000E00070007000E000C000C000C0D
:10316800000C000C003C00380000000000000000CB
:103178000000000000008038807F00470000000049
:103188000000000000000000000000000000000037
:103198000000000000000000000000000000000027
:1031A80000100010001000100010001000000010A7
:1031B800000000000028002800280000000000008F
:1031C800000000000000000000240024007C00240F
:1031D8000048007C00480048000000000038005407
:1031E800005000380014005400540038001000004B
:1031F8000020005400580030002800540014000833
:1032080000000000001000280028001000340048CA
:1032180000480034000000000010001000100000FA
:10322800000000000000000000000000000800107E
:1032380000200020002000200020002000100008AE
:103248000020001000080008000800080008000816
:1032580000100020001000380010002800000000B6
:103268000000000000000000000000000010001036
:10327800007C0010001000000000000000000000AA
:103288000000000000000000000000100010001006
:1032980000000000000000000000003800000000EE
:1032A8000000000000000000000000000000000016
:1032B80000000010000000000008000800100010C6
:1032C800001000100020002000000000003800441A
:1032D800004400540044004400440038000000004A
:1032E80000100030005000100010001000100010F6
:1032F80000000000003800440044000400080010EA
:103308000020007C00000000003800440004001881
:103318000004000400440038000000000008001801
:10332800002800280048007C000800080000000071
:10333800007C00400040007800040004004400388D
:1033480000000000003800440040007800440044B9
:103358000044003800000000007C00040008001051
:103368000010002000200020000000000038004469
:1033780000440038004400440044003800000000C5
:103388000038004400440044003C00040044003875
:103398000000000000000000001000000000000015
:1033A80000000010000000000000000000000010F5
:1033B80000000000000000100010001000000000D5
:1033C800000C003000400030000C0000000000003D
:1033D800000000000000007C0000007C00000000ED
:1033E8000000000000000000006000180004001841
:1033F80000600000000000000038004400040008DD
:103408000010001000000010000000000038004408
:10341800004C0054005C00400040003800000000F0
:1034280000100028002800280028007C00440044E0
:103438000000000000780044004400780044004484
:1034480000440078000000000038004400400040BC
:1034580000400040004400380000000000700048B0
:10346800004400440044004400480070000000008C
:10347800007C00400040007C004000400040007C90
:1034880000000000007C0040004000780040004040
:1034980000400040000000000038004400400040A8
:1034A800005C004400440038000000000044004470
:1034B8000044007C00440044004400440000000034
:1034C8000038001000100010001000100010003824
:1034D80000000000000400040004000400040004CC
:1034E800004400380000000000440048005000601C
:1034F8000050004800480044000000000040004020
:1035080000400040004000400040007C00000000F7
:103518000044006C006C0054004400440044004423
:103528000000000000440064006400540054004C93
:10353800004C0044000000000038004400440044EF
:1035480000440044004400380000000000780044B3
:1035580000440044007800400040004000000000A3
:10356800003800440044004400440044005400383B
:10357800000400000078004400440044007800483B
:1035880000480044000000000038004400400030BB
:10359800000800040044003800000000007C00100F
:1035A80000100010001000100010001000000000B3
:1035B80000440044004400440044004400440038EF
:1035C80000000000004400440044002800280028AF
:1035D8000010001000000000004400440054005493
:1035E8000054006C00280028000000000044002857
:1035F80000280010001000280028004400000000E7
:10360800004400440028002800100010001000109A
:1036180000000000007C00040008001000100020DA
:103628000040007C0000000000180010001000108E
:1036380000100010001000100010001800200020DA
:103648000010001000100010000800080000000022
:1036580000300010001000100010001000100010C2
:10366800001000300010002800280044000000006E
:103678000000000000000000000000000000000042
:103688000000000000000000000000FE0020001004
:103698000000000000000000000000000000000022
:1036A8000000000000380044003C0044004C003496
:1036B800000000000040004000580064004400443E
:1036C80000640058000000000000000000380044BA
:1036D80000400040004400380000000000040004DE
:1036E8000034004C00440044004C0034000000004A
:1036F8000000000000380044007C0040004400380E
:1037080000000000000C0010007C001000100010E9
:103718000010001000000000000000000034004C01
:1037280000440044004C003400040078004000408D
:1037380000580064004400440044004400000000B5
:1037480000100000007000100010001000100010A1
:1037580000000000001000000070001000100010B1
:1037680000100010001000E0004000400048005029
:103778000060005000480044000000000070001085
:1037880000100010001000100010001000000000D1
:103798000000000000780054005400540054005405
:1037A80000000000000000000058006400440044CD
:1037B80000440044000000000000000000380044FD
:1037C80000440044004400380000000000000000ED
:1037D8000058006400440044006400580040004061
:1037E800000000000034004C00440044004C003449
:1037F800000400040000000000580064004000407D
:1038080000400040000000000000000000380044B4
:1038180000300008004400380000000000200020AC
:103828000078002000200020002000180000000080
:10383800000000000044004400440044004C0034F0
:103848000000000000000000004400440028002898
:103858000028001000000000000000000054005480
:103868000054006C00280028000000000000000040
:103878000044002800100010002800440000000048
:103888000000000000440044002800280010001038
:103898000010006000000000007C000800100020FC
:1038A8000040007C0000000000180010001000100C
:1038B8000020002000100010001000180010001058
:1038C8000010001000100010001000100010001070
:1038D8000030001000100010000800080010001050
:1038E800001000300000000000000074004C0000D0
:1038F800000000000000000004E010021C0712375E
:1039080032292D29252B3900010310E110031D0749
:10391800062E2C292D2E2E373F0000021013800A68
:1039280029806400022A040000007F2B04000000A4
:103938007F0000000F0180961180FFB103012C2D3C
:10394800B203012C2DB306012C2D012C2DB4010737
:10395800C003A20284C101C5C2020A00C3028A2AA6
:10396800C4028AEEC5010E20003601A03A01050006
:103978004E6F204661696C00506C6F7474657220DC
:103988004F4E0000496E69742E206D616E206D6F78
:1039980076650000536574205A65726F20506F7306
:1039A8002E0000004175746F2E20536574757000E9
:1039B8004D616E2E20536574757000005365742038
:1039C80028302C30292D706F730000005365742047
:1039D8006E6578742D706F73000000005355434373
:1039E80045535321000000004641494C45442100FD
:1039F80052756E204E6578743F0000004D616E75FB
:103A0800616C6C79206D6F766520706C6F7474656D
:103A180072207573696E67206A6F7970616400003F
:103A28005365742063757272656E7420706F73735A
:103A38006974696F6E206173206F726967696E209F
:103A480028302C30290000004175746F6D6174694D
:103A580063616C6C79207365747570207468652077
:103A6800666C6173682070696E20706F7369746921
:103A78006F6E73004D616E75616C6C79207365743F
:103A880075702074686520666C6173682070696E53
:103A980020706F736974696F6E73000053657420CA
:103AA800737461727420706F736974696F6E00004B
:103AB800536574206E65787420706F736974696FCC
:103AC8006E00000050726573732053454C45435493
:103AD800207768656E206E6578742062617463680B
:103AE800206C6F616465642E0A507265737320439D
:103AF800414E43454C20746F2073746F7020666C80
:103B0800617368696E672E000000000001020304FB
:103B18000000000000000000010203040607080975
:103B280002030405060708090A0B0C0D0E0F1010F6
:043B38000000000089
:043B3C00410100083B
:043B40001D0100085B
:103B44000B12000038240008070A00009431000812
:0C3B54000024F40001000000100000003C
:040000050800235577
:00000001FF
